{"abi":[{"type":"constructor","inputs":[{"name":"_usdcAddress","type":"address","internalType":"address"}],"stateMutability":"nonpayable"},{"type":"function","name":"MINIMUM_CONTRIBUTION","inputs":[],"outputs":[{"name":"","type":"uint256","internalType":"uint256"}],"stateMutability":"view"},{"type":"function","name":"USDC","inputs":[],"outputs":[{"name":"","type":"address","internalType":"contract IERC20"}],"stateMutability":"view"},{"type":"function","name":"campaignCount","inputs":[],"outputs":[{"name":"","type":"uint256","internalType":"uint256"}],"stateMutability":"view"},{"type":"function","name":"campaigns","inputs":[{"name":"","type":"uint256","internalType":"uint256"}],"outputs":[{"name":"name","type":"string","internalType":"string"},{"name":"description","type":"string","internalType":"string"},{"name":"imageUrl","type":"string","internalType":"string"},{"name":"walletAddress","type":"address","internalType":"address payable"},{"name":"orgId","type":"uint256","internalType":"uint256"},{"name":"totalDeposits","type":"uint256","internalType":"uint256"},{"name":"target","type":"uint256","internalType":"uint256"},{"name":"isActive","type":"bool","internalType":"bool"}],"stateMutability":"view"},{"type":"function","name":"createCampaign","inputs":[{"name":"_orgId","type":"uint256","internalType":"uint256"},{"name":"_name","type":"string","internalType":"string"},{"name":"_description","type":"string","internalType":"string"},{"name":"_imageUrl","type":"string","internalType":"string"},{"name":"_walletAddress","type":"address","internalType":"address payable"},{"name":"_target","type":"uint256","internalType":"uint256"}],"outputs":[{"name":"","type":"uint256","internalType":"uint256"}],"stateMutability":"nonpayable"},{"type":"function","name":"createOrganization","inputs":[{"name":"_name","type":"string","internalType":"string"},{"name":"_imageUrl","type":"string","internalType":"string"},{"name":"_description","type":"string","internalType":"string"}],"outputs":[{"name":"","type":"uint256","internalType":"uint256"}],"stateMutability":"nonpayable"},{"type":"function","name":"deposit","inputs":[{"name":"_campaignId","type":"uint256","internalType":"uint256"},{"name":"_amount","type":"uint256","internalType":"uint256"}],"outputs":[],"stateMutability":"nonpayable"},{"type":"function","name":"getCampaignCount","inputs":[],"outputs":[{"name":"","type":"uint256","internalType":"uint256"}],"stateMutability":"view"},{"type":"function","name":"getCampaignDetails","inputs":[{"name":"_campaignId","type":"uint256","internalType":"uint256"}],"outputs":[{"name":"name","type":"string","internalType":"string"},{"name":"description","type":"string","internalType":"string"},{"name":"imageUrl","type":"string","internalType":"string"},{"name":"walletAddress","type":"address","internalType":"address"},{"name":"orgId","type":"uint256","internalType":"uint256"},{"name":"totalDeposits","type":"uint256","internalType":"uint256"},{"name":"target","type":"uint256","internalType":"uint256"},{"name":"isActive","type":"bool","internalType":"bool"}],"stateMutability":"view"},{"type":"function","name":"getMemberDeposits","inputs":[{"name":"_campaignId","type":"uint256","internalType":"uint256"},{"name":"_member","type":"address","internalType":"address"}],"outputs":[{"name":"","type":"uint256","internalType":"uint256"}],"stateMutability":"view"},{"type":"function","name":"getMemberOrganizations","inputs":[{"name":"_member","type":"address","internalType":"address"}],"outputs":[{"name":"","type":"uint256[]","internalType":"uint256[]"}],"stateMutability":"view"},{"type":"function","name":"getMinimumContribution","inputs":[],"outputs":[{"name":"","type":"uint256","internalType":"uint256"}],"stateMutability":"pure"},{"type":"function","name":"getOrganizationCampaigns","inputs":[{"name":"_orgId","type":"uint256","internalType":"uint256"}],"outputs":[{"name":"","type":"uint256[]","internalType":"uint256[]"}],"stateMutability":"view"},{"type":"function","name":"getOrganizationCount","inputs":[],"outputs":[{"name":"","type":"uint256","internalType":"uint256"}],"stateMutability":"view"},{"type":"function","name":"getOrganizationDetails","inputs":[{"name":"_orgId","type":"uint256","internalType":"uint256"}],"outputs":[{"name":"name","type":"string","internalType":"string"},{"name":"imageUrl","type":"string","internalType":"string"},{"name":"description","type":"string","internalType":"string"},{"name":"owner","type":"address","internalType":"address"},{"name":"isActive","type":"bool","internalType":"bool"},{"name":"orgId","type":"uint256","internalType":"uint256"}],"stateMutability":"view"},{"type":"function","name":"getUSDCAddress","inputs":[],"outputs":[{"name":"","type":"address","internalType":"address"}],"stateMutability":"view"},{"type":"function","name":"getUserOrganizations","inputs":[{"name":"_user","type":"address","internalType":"address"}],"outputs":[{"name":"","type":"uint256[]","internalType":"uint256[]"}],"stateMutability":"view"},{"type":"function","name":"isMemberOfOrganization","inputs":[{"name":"_orgId","type":"uint256","internalType":"uint256"},{"name":"_member","type":"address","internalType":"address"}],"outputs":[{"name":"","type":"bool","internalType":"bool"}],"stateMutability":"view"},{"type":"function","name":"joinOrganization","inputs":[{"name":"_orgId","type":"uint256","internalType":"uint256"}],"outputs":[],"stateMutability":"nonpayable"},{"type":"function","name":"memberOrganizations","inputs":[{"name":"","type":"address","internalType":"address"},{"name":"","type":"uint256","internalType":"uint256"}],"outputs":[{"name":"","type":"uint256","internalType":"uint256"}],"stateMutability":"view"},{"type":"function","name":"organizationCount","inputs":[],"outputs":[{"name":"","type":"uint256","internalType":"uint256"}],"stateMutability":"view"},{"type":"function","name":"organizations","inputs":[{"name":"","type":"uint256","internalType":"uint256"}],"outputs":[{"name":"name","type":"string","internalType":"string"},{"name":"imageUrl","type":"string","internalType":"string"},{"name":"description","type":"string","internalType":"string"},{"name":"owner","type":"address","internalType":"address"},{"name":"orgId","type":"uint256","internalType":"uint256"},{"name":"isActive","type":"bool","internalType":"bool"}],"stateMutability":"view"},{"type":"function","name":"userOrganizations","inputs":[{"name":"","type":"address","internalType":"address"},{"name":"","type":"uint256","internalType":"uint256"}],"outputs":[{"name":"","type":"uint256","internalType":"uint256"}],"stateMutability":"view"},{"type":"event","name":"CampaignCreated","inputs":[{"name":"campaignId","type":"uint256","indexed":true,"internalType":"uint256"},{"name":"name","type":"string","indexed":false,"internalType":"string"},{"name":"orgId","type":"uint256","indexed":true,"internalType":"uint256"},{"name":"walletAddress","type":"address","indexed":true,"internalType":"address"},{"name":"imageUrl","type":"string","indexed":false,"internalType":"string"}],"anonymous":false},{"type":"event","name":"CampaignTargetReached","inputs":[{"name":"campaignId","type":"uint256","indexed":true,"internalType":"uint256"},{"name":"target","type":"uint256","indexed":false,"internalType":"uint256"},{"name":"timestamp","type":"uint256","indexed":false,"internalType":"uint256"}],"anonymous":false},{"type":"event","name":"DepositMade","inputs":[{"name":"campaignId","type":"uint256","indexed":true,"internalType":"uint256"},{"name":"member","type":"address","indexed":true,"internalType":"address"},{"name":"amount","type":"uint256","indexed":false,"internalType":"uint256"},{"name":"timestamp","type":"uint256","indexed":false,"internalType":"uint256"},{"name":"newTotal","type":"uint256","indexed":false,"internalType":"uint256"}],"anonymous":false},{"type":"event","name":"MemberJoined","inputs":[{"name":"orgId","type":"uint256","indexed":true,"internalType":"uint256"},{"name":"member","type":"address","indexed":true,"internalType":"address"}],"anonymous":false},{"type":"event","name":"OrganizationCreated","inputs":[{"name":"orgId","type":"uint256","indexed":true,"internalType":"uint256"},{"name":"name","type":"string","indexed":false,"internalType":"string"},{"name":"owner","type":"address","indexed":true,"internalType":"address"},{"name":"imageUrl","type":"string","indexed":false,"internalType":"string"},{"name":"description","type":"string","indexed":false,"internalType":"string"}],"anonymous":false},{"type":"error","name":"ReentrancyGuardReentrantCall","inputs":[]}],"bytecode":{"object":"0x60a060405234801561001057600080fd5b5060405161213838038061213883398101604081905261002f9161009f565b60016000556001600160a01b03811661008e5760405162461bcd60e51b815260206004820152601460248201527f496e76616c696420555344432061646472657373000000000000000000000000604482015260640160405180910390fd5b6001600160a01b03166080526100cf565b6000602082840312156100b157600080fd5b81516001600160a01b03811681146100c857600080fd5b9392505050565b60805161203261010660003960008181610241015281816102bd015281816113b301528181611491015261158301526120326000f3fe608060405234801561001057600080fd5b506004361061014d5760003560e01c80638d0bba03116100c3578063d937c55d1161007c578063d937c55d1461032e578063d993de6214610341578063e2bbb15814610354578063e792dd8a14610367578063f1c621041461038c578063f84038b11461039557600080fd5b80638d0bba031461027b57806393c9a00514610285578063aa097ef0146102a8578063bc06e81d146102bb578063ca8cc56c146102e1578063d4b5bf561461031b57600080fd5b80635734e5e3116101155780635734e5e3146101eb5780636caa9218146101f35780637271608d146101fb5780637274e30d1461020e57806379bb57b41461021757806389a302711461023c57600080fd5b80630e20f01b14610152578063141961bc1461016757806323247b56146101975780634c2bbc9d146101b85780635370129d146101cb575b600080fd5b61016561016036600461193f565b61039e565b005b61017a61017536600461193f565b6104d6565b60405161018e98979695949392919061199e565b60405180910390f35b6101aa6101a5366004611ab4565b6106bc565b60405190815260200161018e565b6101aa6101c6366004611b54565b61086b565b6101de6101d936600461193f565b610b47565b60405161018e9190611c03565b6005546101aa565b6006546101aa565b6101de610209366004611c47565b610ca6565b6101aa60065481565b61022a61022536600461193f565b610d12565b60405161018e96959493929190611c6b565b6102637f000000000000000000000000000000000000000000000000000000000000000081565b6040516001600160a01b03909116815260200161018e565b6101aa624c4b4081565b610298610293366004611ccc565b610f14565b604051901515815260200161018e565b6101de6102b6366004611c47565b610f44565b7f0000000000000000000000000000000000000000000000000000000000000000610263565b6101aa6102ef366004611ccc565b60008281526004602090815260408083206001600160a01b038516845260080190915290205492915050565b6101aa610329366004611cfc565b610fae565b6101aa61033c366004611cfc565b610fdf565b61017a61034f36600461193f565b610ffb565b610165610362366004611d28565b611223565b61037a61037536600461193f565b61173a565b60405161018e96959493929190611d4a565b6101aa60055481565b624c4b406101aa565b600081815260016020526040902060050154819060ff166104065760405162461bcd60e51b815260206004820152601b60248201527f4f7267616e697a6174696f6e20646f6573206e6f74206578697374000000000060448201526064015b60405180910390fd5b600082815260016020908152604080832033845260060190915290205460ff16156104665760405162461bcd60e51b815260206004820152601060248201526f20b63932b0b23c90309036b2b6b132b960811b60448201526064016103fd565b60008281526001602081815260408084203380865260069091018352818520805460ff191685179055600383528185208054948501815585529184209092018590559051909184917f78da64a590c3052953ad9e0a5546bbf12bb68ae7634e3fb2a774e22a8c6557c19190a35050565b6004602052600090815260409020805481906104f190611dad565b80601f016020809104026020016040519081016040528092919081815260200182805461051d90611dad565b801561056a5780601f1061053f5761010080835404028352916020019161056a565b820191906000526020600020905b81548152906001019060200180831161054d57829003601f168201915b50505050509080600101805461057f90611dad565b80601f01602080910402602001604051908101604052809291908181526020018280546105ab90611dad565b80156105f85780601f106105cd576101008083540402835291602001916105f8565b820191906000526020600020905b8154815290600101906020018083116105db57829003601f168201915b50505050509080600201805461060d90611dad565b80601f016020809104026020016040519081016040528092919081815260200182805461063990611dad565b80156106865780601f1061065b57610100808354040283529160200191610686565b820191906000526020600020905b81548152906001019060200180831161066957829003601f168201915b505050600384015460048501546005860154600687015460079097015495966001600160a01b0390931695919450925060ff1688565b6000808451116107055760405162461bcd60e51b81526020600482015260146024820152734e616d652063616e6e6f7420626520656d70747960601b60448201526064016103fd565b60008351116107525760405162461bcd60e51b8152602060048201526019602482015278496d6167652055524c2063616e6e6f7420626520656d70747960381b60448201526064016103fd565b60055460008181526001602052604090208061076e8782611e38565b506001810161077d8682611e38565b506002810161078c8582611e38565b50600380820180546001600160a01b031916339081179091556004830184905560058301805460ff19908116600190811790925560008381526006860160209081526040808320805490941685179093556002815282822080548086018255908352818320018890558482529485528181208054938401815581529390932001849055905183907fe4156f5a12f2e090f225e7793f7aa436b22e2f369e3d29e9a9a26fad5998587190610844908a908a908a90611ef8565b60405180910390a36005805490600061085c83611f51565b90915550919695505050505050565b600086815260016020526040812060050154879060ff166108ce5760405162461bcd60e51b815260206004820152601b60248201527f4f7267616e697a6174696f6e20646f6573206e6f74206578697374000000000060448201526064016103fd565b60008881526001602052604090206003015488906001600160a01b031633146109395760405162461bcd60e51b815260206004820152601a60248201527f4e6f7420746865206f7267616e697a6174696f6e206f776e657200000000000060448201526064016103fd565b6001600160a01b0385166109885760405162461bcd60e51b8152602060048201526016602482015275496e76616c69642077616c6c6574206164647265737360501b60448201526064016103fd565b60008851116109d05760405162461bcd60e51b81526020600482015260146024820152734e616d652063616e6e6f7420626520656d70747960601b60448201526064016103fd565b6000865111610a1d5760405162461bcd60e51b8152602060048201526019602482015278496d6167652055524c2063616e6e6f7420626520656d70747960381b60448201526064016103fd565b60008411610a6d5760405162461bcd60e51b815260206004820152601d60248201527f546172676574206d7573742062652067726561746572207468616e203000000060448201526064016103fd565b600654600081815260046020526040902080610a898b82611e38565b5060018101610a988a82611e38565b5060028101610aa78982611e38565b506003810180546001600160a01b0319166001600160a01b038916908117909155600482018c90556006820187905560078201805460ff191660011790556040518c9084907f1822b1fbfa83e2e86484f31e1d17e33f0e3e7954cec63fd3a359f1e98f3745e390610b1b908f908e90611f6a565b60405180910390a460068054906000610b3383611f51565b90915550919b9a5050505050505050505050565b6060600060065467ffffffffffffffff811115610b6657610b66611a11565b604051908082528060200260200182016040528015610b8f578160200160208202803683370190505b5090506000805b600654811015610c0b576000818152600460208190526040909120015485148015610bd2575060008181526004602052604090206007015460ff165b15610c035780838381518110610bea57610bea611f98565b602090810291909101015281610bff81611f51565b9250505b600101610b96565b5060008167ffffffffffffffff811115610c2757610c27611a11565b604051908082528060200260200182016040528015610c50578160200160208202803683370190505b50905060005b82811015610c9d57838181518110610c7057610c70611f98565b6020026020010151828281518110610c8a57610c8a611f98565b6020908102919091010152600101610c56565b50949350505050565b6001600160a01b038116600090815260036020908152604091829020805483518184028101840190945280845260609392830182828015610d0657602002820191906000526020600020905b815481526020019060010190808311610cf2575b50505050509050919050565b60008181526001602081905260408220600381015460058201546004830154835460609687968796919586958695939485949385019360028601936001600160a01b03169260ff16918690610d6690611dad565b80601f0160208091040260200160405190810160405280929190818152602001828054610d9290611dad565b8015610ddf5780601f10610db457610100808354040283529160200191610ddf565b820191906000526020600020905b815481529060010190602001808311610dc257829003601f168201915b50505050509550848054610df290611dad565b80601f0160208091040260200160405190810160405280929190818152602001828054610e1e90611dad565b8015610e6b5780601f10610e4057610100808354040283529160200191610e6b565b820191906000526020600020905b815481529060010190602001808311610e4e57829003601f168201915b50505050509450838054610e7e90611dad565b80601f0160208091040260200160405190810160405280929190818152602001828054610eaa90611dad565b8015610ef75780601f10610ecc57610100808354040283529160200191610ef7565b820191906000526020600020905b815481529060010190602001808311610eda57829003601f168201915b505050505093509650965096509650965096505091939550919395565b60008281526001602090815260408083206001600160a01b038516845260060190915290205460ff165b92915050565b6001600160a01b038116600090815260026020908152604091829020805483518184028101840190945280845260609392830182828015610d065760200282019190600052602060002090815481526020019060010190808311610cf25750505050509050919050565b60026020528160005260406000208181548110610fca57600080fd5b90600052602060002001600091509150505481565b60036020528160005260406000208181548110610fca57600080fd5b6060806060600080600080600080600460008b815260200190815260200160002090508060000181600101826002018360030160009054906101000a90046001600160a01b03168460040154856005015486600601548760070160009054906101000a900460ff1687805461106f90611dad565b80601f016020809104026020016040519081016040528092919081815260200182805461109b90611dad565b80156110e85780601f106110bd576101008083540402835291602001916110e8565b820191906000526020600020905b8154815290600101906020018083116110cb57829003601f168201915b505050505097508680546110fb90611dad565b80601f016020809104026020016040519081016040528092919081815260200182805461112790611dad565b80156111745780601f1061114957610100808354040283529160200191611174565b820191906000526020600020905b81548152906001019060200180831161115757829003601f168201915b5050505050965085805461118790611dad565b80601f01602080910402602001604051908101604052809291908181526020018280546111b390611dad565b80156112005780601f106111d557610100808354040283529160200191611200565b820191906000526020600020905b8154815290600101906020018083116111e357829003601f168201915b505050505095509850985098509850985098509850985050919395975091939597565b61122b611915565b81600654811061127d5760405162461bcd60e51b815260206004820152601760248201527f43616d706169676e20646f6573206e6f7420657869737400000000000000000060448201526064016103fd565b60008181526004602052604090206007015460ff166112d75760405162461bcd60e51b815260206004820152601660248201527543616d706169676e206973206e6f742061637469766560501b60448201526064016103fd565b6000838152600460208181526040808420928301548452600182528084203385526006019091529091205460ff166113515760405162461bcd60e51b815260206004820181905260248201527f4e6f742061206d656d626572206f6620746865206f7267616e697a6174696f6e60448201526064016103fd565b624c4b4083101561139c5760405162461bcd60e51b81526020600482015260156024820152744465706f7369742062656c6f77206d696e696d756d60581b60448201526064016103fd565b6040516370a0823160e01b815233600482015283907f00000000000000000000000000000000000000000000000000000000000000006001600160a01b0316906370a0823190602401602060405180830381865afa158015611402573d6000803e3d6000fd5b505050506040513d601f19601f820116820180604052508101906114269190611fae565b10156114745760405162461bcd60e51b815260206004820152601960248201527f496e73756666696369656e7420555344432062616c616e63650000000000000060448201526064016103fd565b604051636eb1769f60e11b815233600482015230602482015283907f00000000000000000000000000000000000000000000000000000000000000006001600160a01b03169063dd62ed3e90604401602060405180830381865afa1580156114e0573d6000803e3d6000fd5b505050506040513d601f19601f820116820180604052508101906115049190611fae565b10156115525760405162461bcd60e51b815260206004820152601b60248201527f496e73756666696369656e74205553444320616c6c6f77616e6365000000000060448201526064016103fd565b60038101546040516323b872dd60e01b81523360048201526001600160a01b039182166024820152604481018590527f0000000000000000000000000000000000000000000000000000000000000000909116906323b872dd906064016020604051808303816000875af11580156115ce573d6000803e3d6000fd5b505050506040513d601f19601f820116820180604052508101906115f29190611fc7565b6116355760405162461bcd60e51b81526020600482015260146024820152731554d110c81d1c985b9cd9995c8819985a5b195960621b60448201526064016103fd565b8281600501546116459190611fe9565b6005820155336000908152600882016020526040902054611667908490611fe9565b33600090815260088301602052604090205560068101546005820154106116d45760078101805460ff1916905560068101546040805191825242602083015285917f21067fbd20df4e7e42c1cb411b3eb3b3a0f253b7c22ee53bcfb6934717e1d1e8910160405180910390a25b336000818152600883016020908152604091829020548251878152429281019290925281830152905186917f43e534af76c719a70aba9c6aea2c26b61620e8cfcf4832e47c4f273625eb6075919081900360600190a350506117366001600055565b5050565b60016020526000908152604090208054819061175590611dad565b80601f016020809104026020016040519081016040528092919081815260200182805461178190611dad565b80156117ce5780601f106117a3576101008083540402835291602001916117ce565b820191906000526020600020905b8154815290600101906020018083116117b157829003601f168201915b5050505050908060010180546117e390611dad565b80601f016020809104026020016040519081016040528092919081815260200182805461180f90611dad565b801561185c5780601f106118315761010080835404028352916020019161185c565b820191906000526020600020905b81548152906001019060200180831161183f57829003601f168201915b50505050509080600201805461187190611dad565b80601f016020809104026020016040519081016040528092919081815260200182805461189d90611dad565b80156118ea5780601f106118bf576101008083540402835291602001916118ea565b820191906000526020600020905b8154815290600101906020018083116118cd57829003601f168201915b505050506003830154600484015460059094015492936001600160a01b039091169290915060ff1686565b60026000540361193857604051633ee5aeb560e01b815260040160405180910390fd5b6002600055565b60006020828403121561195157600080fd5b5035919050565b6000815180845260005b8181101561197e57602081850181015186830182015201611962565b506000602082860101526020601f19601f83011685010191505092915050565b60006101008083526119b28184018c611958565b905082810360208401526119c6818b611958565b905082810360408401526119da818a611958565b6001600160a01b039890981660608401525050608081019490945260a084019290925260c0830152151560e0909101529392505050565b634e487b7160e01b600052604160045260246000fd5b600082601f830112611a3857600080fd5b813567ffffffffffffffff80821115611a5357611a53611a11565b604051601f8301601f19908116603f01168101908282118183101715611a7b57611a7b611a11565b81604052838152866020858801011115611a9457600080fd5b836020870160208301376000602085830101528094505050505092915050565b600080600060608486031215611ac957600080fd5b833567ffffffffffffffff80821115611ae157600080fd5b611aed87838801611a27565b94506020860135915080821115611b0357600080fd5b611b0f87838801611a27565b93506040860135915080821115611b2557600080fd5b50611b3286828701611a27565b9150509250925092565b6001600160a01b0381168114611b5157600080fd5b50565b60008060008060008060c08789031215611b6d57600080fd5b86359550602087013567ffffffffffffffff80821115611b8c57600080fd5b611b988a838b01611a27565b96506040890135915080821115611bae57600080fd5b611bba8a838b01611a27565b95506060890135915080821115611bd057600080fd5b50611bdd89828a01611a27565b9350506080870135611bee81611b3c565b8092505060a087013590509295509295509295565b6020808252825182820181905260009190848201906040850190845b81811015611c3b57835183529284019291840191600101611c1f565b50909695505050505050565b600060208284031215611c5957600080fd5b8135611c6481611b3c565b9392505050565b60c081526000611c7e60c0830189611958565b8281036020840152611c908189611958565b90508281036040840152611ca48188611958565b6001600160a01b039690961660608401525050911515608083015260a0909101529392505050565b60008060408385031215611cdf57600080fd5b823591506020830135611cf181611b3c565b809150509250929050565b60008060408385031215611d0f57600080fd5b8235611d1a81611b3c565b946020939093013593505050565b60008060408385031215611d3b57600080fd5b50508035926020909101359150565b60c081526000611d5d60c0830189611958565b8281036020840152611d6f8189611958565b90508281036040840152611d838188611958565b6001600160a01b0396909616606084015250506080810192909252151560a0909101529392505050565b600181811c90821680611dc157607f821691505b602082108103611de157634e487b7160e01b600052602260045260246000fd5b50919050565b601f821115611e33576000816000526020600020601f850160051c81016020861015611e105750805b601f850160051c820191505b81811015611e2f57828155600101611e1c565b5050505b505050565b815167ffffffffffffffff811115611e5257611e52611a11565b611e6681611e608454611dad565b84611de7565b602080601f831160018114611e9b5760008415611e835750858301515b600019600386901b1c1916600185901b178555611e2f565b600085815260208120601f198616915b82811015611eca57888601518255948401946001909101908401611eab565b5085821015611ee85787850151600019600388901b60f8161c191681555b5050505050600190811b01905550565b606081526000611f0b6060830186611958565b8281036020840152611f1d8186611958565b90508281036040840152611f318185611958565b9695505050505050565b634e487b7160e01b600052601160045260246000fd5b600060018201611f6357611f63611f3b565b5060010190565b604081526000611f7d6040830185611958565b8281036020840152611f8f8185611958565b95945050505050565b634e487b7160e01b600052603260045260246000fd5b600060208284031215611fc057600080fd5b5051919050565b600060208284031215611fd957600080fd5b81518015158114611c6457600080fd5b80820180821115610f3e57610f3e611f3b56fea2646970667358221220c7582a36405380d67787834917293068e9f58ea736f50edee38c2b4e3cb4b89664736f6c63430008190033","linkReferences":{}},"methodIdentifiers":{"MINIMUM_CONTRIBUTION()":"8d0bba03","USDC()":"89a30271","campaignCount()":"7274e30d","campaigns(uint256)":"141961bc","createCampaign(uint256,string,string,string,address,uint256)":"4c2bbc9d","createOrganization(string,string,string)":"23247b56","deposit(uint256,uint256)":"e2bbb158","getCampaignCount()":"6caa9218","getCampaignDetails(uint256)":"d993de62","getMemberDeposits(uint256,address)":"ca8cc56c","getMemberOrganizations(address)":"7271608d","getMinimumContribution()":"f84038b1","getOrganizationCampaigns(uint256)":"5370129d","getOrganizationCount()":"5734e5e3","getOrganizationDetails(uint256)":"79bb57b4","getUSDCAddress()":"bc06e81d","getUserOrganizations(address)":"aa097ef0","isMemberOfOrganization(uint256,address)":"93c9a005","joinOrganization(uint256)":"0e20f01b","memberOrganizations(address,uint256)":"d937c55d","organizationCount()":"f1c62104","organizations(uint256)":"e792dd8a","userOrganizations(address,uint256)":"d4b5bf56"},"id":27}