{"abi":[{"type":"constructor","inputs":[{"name":"_usdcAddress","type":"address","internalType":"address"}],"stateMutability":"nonpayable"},{"type":"function","name":"MINIMUM_CONTRIBUTION","inputs":[],"outputs":[{"name":"","type":"uint256","internalType":"uint256"}],"stateMutability":"view"},{"type":"function","name":"USDC","inputs":[],"outputs":[{"name":"","type":"address","internalType":"contract IERC20"}],"stateMutability":"view"},{"type":"function","name":"campaignCount","inputs":[],"outputs":[{"name":"","type":"uint256","internalType":"uint256"}],"stateMutability":"view"},{"type":"function","name":"campaigns","inputs":[{"name":"","type":"uint256","internalType":"uint256"}],"outputs":[{"name":"name","type":"string","internalType":"string"},{"name":"description","type":"string","internalType":"string"},{"name":"imageUrl","type":"string","internalType":"string"},{"name":"walletAddress","type":"address","internalType":"address payable"},{"name":"orgId","type":"uint256","internalType":"uint256"},{"name":"totalDeposits","type":"uint256","internalType":"uint256"},{"name":"isActive","type":"bool","internalType":"bool"}],"stateMutability":"view"},{"type":"function","name":"createCampaign","inputs":[{"name":"_orgId","type":"uint256","internalType":"uint256"},{"name":"_name","type":"string","internalType":"string"},{"name":"_description","type":"string","internalType":"string"},{"name":"_imageUrl","type":"string","internalType":"string"},{"name":"_walletAddress","type":"address","internalType":"address payable"}],"outputs":[{"name":"","type":"uint256","internalType":"uint256"}],"stateMutability":"nonpayable"},{"type":"function","name":"createOrganization","inputs":[{"name":"_name","type":"string","internalType":"string"},{"name":"_imageUrl","type":"string","internalType":"string"}],"outputs":[{"name":"","type":"uint256","internalType":"uint256"}],"stateMutability":"nonpayable"},{"type":"function","name":"deposit","inputs":[{"name":"_campaignId","type":"uint256","internalType":"uint256"},{"name":"_amount","type":"uint256","internalType":"uint256"}],"outputs":[],"stateMutability":"nonpayable"},{"type":"function","name":"getCampaignCount","inputs":[],"outputs":[{"name":"","type":"uint256","internalType":"uint256"}],"stateMutability":"view"},{"type":"function","name":"getCampaignDetails","inputs":[{"name":"_campaignId","type":"uint256","internalType":"uint256"}],"outputs":[{"name":"name","type":"string","internalType":"string"},{"name":"description","type":"string","internalType":"string"},{"name":"imageUrl","type":"string","internalType":"string"},{"name":"walletAddress","type":"address","internalType":"address"},{"name":"orgId","type":"uint256","internalType":"uint256"},{"name":"totalDeposits","type":"uint256","internalType":"uint256"},{"name":"isActive","type":"bool","internalType":"bool"}],"stateMutability":"view"},{"type":"function","name":"getMemberDeposits","inputs":[{"name":"_campaignId","type":"uint256","internalType":"uint256"},{"name":"_member","type":"address","internalType":"address"}],"outputs":[{"name":"","type":"uint256","internalType":"uint256"}],"stateMutability":"view"},{"type":"function","name":"getMemberOrganizations","inputs":[{"name":"_member","type":"address","internalType":"address"}],"outputs":[{"name":"","type":"uint256[]","internalType":"uint256[]"}],"stateMutability":"view"},{"type":"function","name":"getMinimumContribution","inputs":[],"outputs":[{"name":"","type":"uint256","internalType":"uint256"}],"stateMutability":"pure"},{"type":"function","name":"getOrganizationCampaigns","inputs":[{"name":"_orgId","type":"uint256","internalType":"uint256"}],"outputs":[{"name":"","type":"uint256[]","internalType":"uint256[]"}],"stateMutability":"view"},{"type":"function","name":"getOrganizationCount","inputs":[],"outputs":[{"name":"","type":"uint256","internalType":"uint256"}],"stateMutability":"view"},{"type":"function","name":"getOrganizationDetails","inputs":[{"name":"_orgId","type":"uint256","internalType":"uint256"}],"outputs":[{"name":"name","type":"string","internalType":"string"},{"name":"imageUrl","type":"string","internalType":"string"},{"name":"owner","type":"address","internalType":"address"},{"name":"isActive","type":"bool","internalType":"bool"},{"name":"orgId","type":"uint256","internalType":"uint256"}],"stateMutability":"view"},{"type":"function","name":"getUSDCAddress","inputs":[],"outputs":[{"name":"","type":"address","internalType":"address"}],"stateMutability":"view"},{"type":"function","name":"getUserOrganizations","inputs":[{"name":"_user","type":"address","internalType":"address"}],"outputs":[{"name":"","type":"uint256[]","internalType":"uint256[]"}],"stateMutability":"view"},{"type":"function","name":"isMemberOfOrganization","inputs":[{"name":"_orgId","type":"uint256","internalType":"uint256"},{"name":"_member","type":"address","internalType":"address"}],"outputs":[{"name":"","type":"bool","internalType":"bool"}],"stateMutability":"view"},{"type":"function","name":"joinOrganization","inputs":[{"name":"_orgId","type":"uint256","internalType":"uint256"}],"outputs":[],"stateMutability":"nonpayable"},{"type":"function","name":"memberOrganizations","inputs":[{"name":"","type":"address","internalType":"address"},{"name":"","type":"uint256","internalType":"uint256"}],"outputs":[{"name":"","type":"uint256","internalType":"uint256"}],"stateMutability":"view"},{"type":"function","name":"organizationCount","inputs":[],"outputs":[{"name":"","type":"uint256","internalType":"uint256"}],"stateMutability":"view"},{"type":"function","name":"organizations","inputs":[{"name":"","type":"uint256","internalType":"uint256"}],"outputs":[{"name":"name","type":"string","internalType":"string"},{"name":"imageUrl","type":"string","internalType":"string"},{"name":"owner","type":"address","internalType":"address"},{"name":"orgId","type":"uint256","internalType":"uint256"},{"name":"isActive","type":"bool","internalType":"bool"}],"stateMutability":"view"},{"type":"function","name":"userOrganizations","inputs":[{"name":"","type":"address","internalType":"address"},{"name":"","type":"uint256","internalType":"uint256"}],"outputs":[{"name":"","type":"uint256","internalType":"uint256"}],"stateMutability":"view"},{"type":"event","name":"CampaignCreated","inputs":[{"name":"campaignId","type":"uint256","indexed":true,"internalType":"uint256"},{"name":"name","type":"string","indexed":false,"internalType":"string"},{"name":"orgId","type":"uint256","indexed":true,"internalType":"uint256"},{"name":"walletAddress","type":"address","indexed":true,"internalType":"address"},{"name":"imageUrl","type":"string","indexed":false,"internalType":"string"}],"anonymous":false},{"type":"event","name":"DepositMade","inputs":[{"name":"campaignId","type":"uint256","indexed":true,"internalType":"uint256"},{"name":"member","type":"address","indexed":true,"internalType":"address"},{"name":"amount","type":"uint256","indexed":false,"internalType":"uint256"},{"name":"timestamp","type":"uint256","indexed":false,"internalType":"uint256"},{"name":"newTotal","type":"uint256","indexed":false,"internalType":"uint256"}],"anonymous":false},{"type":"event","name":"MemberJoined","inputs":[{"name":"orgId","type":"uint256","indexed":true,"internalType":"uint256"},{"name":"member","type":"address","indexed":true,"internalType":"address"}],"anonymous":false},{"type":"event","name":"OrganizationCreated","inputs":[{"name":"orgId","type":"uint256","indexed":true,"internalType":"uint256"},{"name":"name","type":"string","indexed":false,"internalType":"string"},{"name":"owner","type":"address","indexed":true,"internalType":"address"},{"name":"imageUrl","type":"string","indexed":false,"internalType":"string"}],"anonymous":false},{"type":"error","name":"ReentrancyGuardReentrantCall","inputs":[]}],"bytecode":{"object":"0x60a060405234801561001057600080fd5b50604051611e88380380611e8883398101604081905261002f9161009f565b60016000556001600160a01b03811661008e5760405162461bcd60e51b815260206004820152601460248201527f496e76616c696420555344432061646472657373000000000000000000000000604482015260640160405180910390fd5b6001600160a01b03166080526100cf565b6000602082840312156100b157600080fd5b81516001600160a01b03811681146100c857600080fd5b9392505050565b608051611d8261010660003960008181610228015281816102b7015281816112920152818161137001526114620152611d826000f3fe608060405234801561001057600080fd5b506004361061014d5760003560e01c806393c9a005116100c3578063d937c55d1161007c578063d937c55d14610328578063d993de621461033b578063e2bbb1581461034e578063e792dd8a14610361578063f1c6210414610385578063f84038b11461038e57600080fd5b806393c9a0051461026c578063a411ef201461028f578063aa097ef0146102a2578063bc06e81d146102b5578063ca8cc56c146102db578063d4b5bf561461031557600080fd5b80637271608d116101155780637271608d146101d05780637274e30d146101e357806379bb57b4146101ec578063858dd14a1461021057806389a30271146102235780638d0bba031461026257600080fd5b80630e20f01b14610152578063141961bc146101675780635370129d146101965780635734e5e3146101b65780636caa9218146101c8575b600080fd5b610165610160366004611730565b610397565b005b61017a610175366004611730565b6104cf565b60405161018d979695949392919061178f565b60405180910390f35b6101a96101a4366004611730565b6106af565b60405161018d91906117fa565b6005545b60405190815260200161018d565b6006546101ba565b6101a96101de366004611856565b61080e565b6101ba60065481565b6101ff6101fa366004611730565b61087a565b60405161018d95949392919061187a565b6101ba61021e366004611969565b6109e9565b61024a7f000000000000000000000000000000000000000000000000000000000000000081565b6040516001600160a01b03909116815260200161018d565b6101ba624c4b4081565b61027f61027a366004611a10565b610c6d565b604051901515815260200161018d565b6101ba61029d366004611a40565b610c9d565b6101a96102b0366004611856565b610e3a565b7f000000000000000000000000000000000000000000000000000000000000000061024a565b6101ba6102e9366004611a10565b60008281526004602090815260408083206001600160a01b038516845260070190915290205492915050565b6101ba610323366004611aa4565b610ea4565b6101ba610336366004611aa4565b610ed5565b61017a610349366004611730565b610ef1565b61016561035c366004611ad0565b611102565b61037461036f366004611730565b6115b9565b60405161018d959493929190611af2565b6101ba60055481565b624c4b406101ba565b600081815260016020526040902060040154819060ff166103ff5760405162461bcd60e51b815260206004820152601b60248201527f4f7267616e697a6174696f6e20646f6573206e6f74206578697374000000000060448201526064015b60405180910390fd5b600082815260016020908152604080832033845260050190915290205460ff161561045f5760405162461bcd60e51b815260206004820152601060248201526f20b63932b0b23c90309036b2b6b132b960811b60448201526064016103f6565b60008281526001602081815260408084203380865260059091018352818520805460ff191685179055600383528185208054948501815585529184209092018590559051909184917f78da64a590c3052953ad9e0a5546bbf12bb68ae7634e3fb2a774e22a8c6557c19190a35050565b6004602052600090815260409020805481906104ea90611b40565b80601f016020809104026020016040519081016040528092919081815260200182805461051690611b40565b80156105635780601f1061053857610100808354040283529160200191610563565b820191906000526020600020905b81548152906001019060200180831161054657829003601f168201915b50505050509080600101805461057890611b40565b80601f01602080910402602001604051908101604052809291908181526020018280546105a490611b40565b80156105f15780601f106105c6576101008083540402835291602001916105f1565b820191906000526020600020905b8154815290600101906020018083116105d457829003601f168201915b50505050509080600201805461060690611b40565b80601f016020809104026020016040519081016040528092919081815260200182805461063290611b40565b801561067f5780601f106106545761010080835404028352916020019161067f565b820191906000526020600020905b81548152906001019060200180831161066257829003601f168201915b5050505060038301546004840154600585015460069095015493946001600160a01b039092169390925060ff1687565b6060600060065467ffffffffffffffff8111156106ce576106ce6118c6565b6040519080825280602002602001820160405280156106f7578160200160208202803683370190505b5090506000805b60065481101561077357600081815260046020819052604090912001548514801561073a575060008181526004602052604090206006015460ff165b1561076b578083838151811061075257610752611b7a565b60209081029190910101528161076781611ba6565b9250505b6001016106fe565b5060008167ffffffffffffffff81111561078f5761078f6118c6565b6040519080825280602002602001820160405280156107b8578160200160208202803683370190505b50905060005b82811015610805578381815181106107d8576107d8611b7a565b60200260200101518282815181106107f2576107f2611b7a565b60209081029190910101526001016107be565b50949350505050565b6001600160a01b03811660009081526003602090815260409182902080548351818402810184019094528084526060939283018282801561086e57602002820191906000526020600020905b81548152602001906001019080831161085a575b50505050509050919050565b600081815260016020819052604082206002810154600482015460038301548354606096879690958695869591948594938501936001600160a01b039092169260ff169185906108c990611b40565b80601f01602080910402602001604051908101604052809291908181526020018280546108f590611b40565b80156109425780601f1061091757610100808354040283529160200191610942565b820191906000526020600020905b81548152906001019060200180831161092557829003601f168201915b5050505050945083805461095590611b40565b80601f016020809104026020016040519081016040528092919081815260200182805461098190611b40565b80156109ce5780601f106109a3576101008083540402835291602001916109ce565b820191906000526020600020905b8154815290600101906020018083116109b157829003601f168201915b50505050509350955095509550955095505091939590929450565b600085815260016020526040812060040154869060ff16610a4c5760405162461bcd60e51b815260206004820152601b60248201527f4f7267616e697a6174696f6e20646f6573206e6f74206578697374000000000060448201526064016103f6565b60008781526001602052604090206002015487906001600160a01b03163314610ab75760405162461bcd60e51b815260206004820152601a60248201527f4e6f7420746865206f7267616e697a6174696f6e206f776e657200000000000060448201526064016103f6565b6001600160a01b038416610b065760405162461bcd60e51b8152602060048201526016602482015275496e76616c69642077616c6c6574206164647265737360501b60448201526064016103f6565b6000875111610b4e5760405162461bcd60e51b81526020600482015260146024820152734e616d652063616e6e6f7420626520656d70747960601b60448201526064016103f6565b6000855111610b9b5760405162461bcd60e51b8152602060048201526019602482015278496d6167652055524c2063616e6e6f7420626520656d70747960381b60448201526064016103f6565b600654600081815260046020526040902080610bb78a82611c10565b5060018101610bc68982611c10565b5060028101610bd58882611c10565b506003810180546001600160a01b0319166001600160a01b038816908117909155600482018b905560068201805460ff191660011790556040518b9084907f1822b1fbfa83e2e86484f31e1d17e33f0e3e7954cec63fd3a359f1e98f3745e390610c42908e908d90611cd0565b60405180910390a460068054906000610c5a83611ba6565b90915550919a9950505050505050505050565b60008281526001602090815260408083206001600160a01b038516845260050190915290205460ff165b92915050565b600080835111610ce65760405162461bcd60e51b81526020600482015260146024820152734e616d652063616e6e6f7420626520656d70747960601b60448201526064016103f6565b6000825111610d335760405162461bcd60e51b8152602060048201526019602482015278496d6167652055524c2063616e6e6f7420626520656d70747960381b60448201526064016103f6565b600554600081815260016020526040902080610d4f8682611c10565b5060018101610d5e8582611c10565b50600280820180546001600160a01b03191633908117909155600380840185905560048401805460ff199081166001908117909255600084815260058701602090815260408083208054909416851790935595865281812080548085018255908252868220018890558481529285528083208054928301815583529390912001849055905183907fe52536cd2ee5b8fcd2eeaabb1fc4b99012dc2d3196320ad31d1ed496ba3fa66690610e149089908990611cd0565b60405180910390a360058054906000610e2c83611ba6565b909155509195945050505050565b6001600160a01b03811660009081526002602090815260409182902080548351818402810184019094528084526060939283018282801561086e576020028201919060005260206000209081548152602001906001019080831161085a5750505050509050919050565b60026020528160005260406000208181548110610ec057600080fd5b90600052602060002001600091509150505481565b60036020528160005260406000208181548110610ec057600080fd5b600081815260046020819052604082206003810154918101546005820154600683015483546060968796879691958695869586958594600186019460028701946001600160a01b0390921693909260ff909116908790610f5090611b40565b80601f0160208091040260200160405190810160405280929190818152602001828054610f7c90611b40565b8015610fc95780601f10610f9e57610100808354040283529160200191610fc9565b820191906000526020600020905b815481529060010190602001808311610fac57829003601f168201915b50505050509650858054610fdc90611b40565b80601f016020809104026020016040519081016040528092919081815260200182805461100890611b40565b80156110555780601f1061102a57610100808354040283529160200191611055565b820191906000526020600020905b81548152906001019060200180831161103857829003601f168201915b5050505050955084805461106890611b40565b80601f016020809104026020016040519081016040528092919081815260200182805461109490611b40565b80156110e15780601f106110b6576101008083540402835291602001916110e1565b820191906000526020600020905b8154815290600101906020018083116110c457829003601f168201915b50505050509450975097509750975097509750975050919395979092949650565b61110a611706565b81600654811061115c5760405162461bcd60e51b815260206004820152601760248201527f43616d706169676e20646f6573206e6f7420657869737400000000000000000060448201526064016103f6565b60008181526004602052604090206006015460ff166111b65760405162461bcd60e51b815260206004820152601660248201527543616d706169676e206973206e6f742061637469766560501b60448201526064016103f6565b6000838152600460208181526040808420928301548452600182528084203385526005019091529091205460ff166112305760405162461bcd60e51b815260206004820181905260248201527f4e6f742061206d656d626572206f6620746865206f7267616e697a6174696f6e60448201526064016103f6565b624c4b4083101561127b5760405162461bcd60e51b81526020600482015260156024820152744465706f7369742062656c6f77206d696e696d756d60581b60448201526064016103f6565b6040516370a0823160e01b815233600482015283907f00000000000000000000000000000000000000000000000000000000000000006001600160a01b0316906370a0823190602401602060405180830381865afa1580156112e1573d6000803e3d6000fd5b505050506040513d601f19601f820116820180604052508101906113059190611cfe565b10156113535760405162461bcd60e51b815260206004820152601960248201527f496e73756666696369656e7420555344432062616c616e63650000000000000060448201526064016103f6565b604051636eb1769f60e11b815233600482015230602482015283907f00000000000000000000000000000000000000000000000000000000000000006001600160a01b03169063dd62ed3e90604401602060405180830381865afa1580156113bf573d6000803e3d6000fd5b505050506040513d601f19601f820116820180604052508101906113e39190611cfe565b10156114315760405162461bcd60e51b815260206004820152601b60248201527f496e73756666696369656e74205553444320616c6c6f77616e6365000000000060448201526064016103f6565b60038101546040516323b872dd60e01b81523360048201526001600160a01b039182166024820152604481018590527f0000000000000000000000000000000000000000000000000000000000000000909116906323b872dd906064016020604051808303816000875af11580156114ad573d6000803e3d6000fd5b505050506040513d601f19601f820116820180604052508101906114d19190611d17565b6115145760405162461bcd60e51b81526020600482015260146024820152731554d110c81d1c985b9cd9995c8819985a5b195960621b60448201526064016103f6565b8281600501546115249190611d39565b6005820155336000908152600782016020526040902054611546908490611d39565b3360008181526007840160205260409081902083905551909186917f43e534af76c719a70aba9c6aea2c26b61620e8cfcf4832e47c4f273625eb6075916115a191889142919283526020830191909152604082015260600190565b60405180910390a350506115b56001600055565b5050565b6001602052600090815260409020805481906115d490611b40565b80601f016020809104026020016040519081016040528092919081815260200182805461160090611b40565b801561164d5780601f106116225761010080835404028352916020019161164d565b820191906000526020600020905b81548152906001019060200180831161163057829003601f168201915b50505050509080600101805461166290611b40565b80601f016020809104026020016040519081016040528092919081815260200182805461168e90611b40565b80156116db5780601f106116b0576101008083540402835291602001916116db565b820191906000526020600020905b8154815290600101906020018083116116be57829003601f168201915b505050506002830154600384015460049094015492936001600160a01b039091169290915060ff1685565b60026000540361172957604051633ee5aeb560e01b815260040160405180910390fd5b6002600055565b60006020828403121561174257600080fd5b5035919050565b6000815180845260005b8181101561176f57602081850181015186830182015201611753565b506000602082860101526020601f19601f83011685010191505092915050565b60e0815260006117a260e083018a611749565b82810360208401526117b4818a611749565b905082810360408401526117c88189611749565b6001600160a01b039790971660608401525050608081019390935260a0830191909152151560c0909101529392505050565b6020808252825182820181905260009190848201906040850190845b8181101561183257835183529284019291840191600101611816565b50909695505050505050565b6001600160a01b038116811461185357600080fd5b50565b60006020828403121561186857600080fd5b81356118738161183e565b9392505050565b60a08152600061188d60a0830188611749565b828103602084015261189f8188611749565b6001600160a01b039690961660408401525050911515606083015260809091015292915050565b634e487b7160e01b600052604160045260246000fd5b600082601f8301126118ed57600080fd5b813567ffffffffffffffff80821115611908576119086118c6565b604051601f8301601f19908116603f01168101908282118183101715611930576119306118c6565b8160405283815286602085880101111561194957600080fd5b836020870160208301376000602085830101528094505050505092915050565b600080600080600060a0868803121561198157600080fd5b85359450602086013567ffffffffffffffff808211156119a057600080fd5b6119ac89838a016118dc565b955060408801359150808211156119c257600080fd5b6119ce89838a016118dc565b945060608801359150808211156119e457600080fd5b506119f1888289016118dc565b9250506080860135611a028161183e565b809150509295509295909350565b60008060408385031215611a2357600080fd5b823591506020830135611a358161183e565b809150509250929050565b60008060408385031215611a5357600080fd5b823567ffffffffffffffff80821115611a6b57600080fd5b611a77868387016118dc565b93506020850135915080821115611a8d57600080fd5b50611a9a858286016118dc565b9150509250929050565b60008060408385031215611ab757600080fd5b8235611ac28161183e565b946020939093013593505050565b60008060408385031215611ae357600080fd5b50508035926020909101359150565b60a081526000611b0560a0830188611749565b8281036020840152611b178188611749565b6001600160a01b0396909616604084015250506060810192909252151560809091015292915050565b600181811c90821680611b5457607f821691505b602082108103611b7457634e487b7160e01b600052602260045260246000fd5b50919050565b634e487b7160e01b600052603260045260246000fd5b634e487b7160e01b600052601160045260246000fd5b600060018201611bb857611bb8611b90565b5060010190565b601f821115611c0b576000816000526020600020601f850160051c81016020861015611be85750805b601f850160051c820191505b81811015611c0757828155600101611bf4565b5050505b505050565b815167ffffffffffffffff811115611c2a57611c2a6118c6565b611c3e81611c388454611b40565b84611bbf565b602080601f831160018114611c735760008415611c5b5750858301515b600019600386901b1c1916600185901b178555611c07565b600085815260208120601f198616915b82811015611ca257888601518255948401946001909101908401611c83565b5085821015611cc05787850151600019600388901b60f8161c191681555b5050505050600190811b01905550565b604081526000611ce36040830185611749565b8281036020840152611cf58185611749565b95945050505050565b600060208284031215611d1057600080fd5b5051919050565b600060208284031215611d2957600080fd5b8151801515811461187357600080fd5b80820180821115610c9757610c97611b9056fea26469706673582212208a36fe7081a99ff01d857824a70738adda474514c3feace31039bad81f8d0cb564736f6c63430008190033","linkReferences":{}},"methodIdentifiers":{"MINIMUM_CONTRIBUTION()":"8d0bba03","USDC()":"89a30271","campaignCount()":"7274e30d","campaigns(uint256)":"141961bc","createCampaign(uint256,string,string,string,address)":"858dd14a","createOrganization(string,string)":"a411ef20","deposit(uint256,uint256)":"e2bbb158","getCampaignCount()":"6caa9218","getCampaignDetails(uint256)":"d993de62","getMemberDeposits(uint256,address)":"ca8cc56c","getMemberOrganizations(address)":"7271608d","getMinimumContribution()":"f84038b1","getOrganizationCampaigns(uint256)":"5370129d","getOrganizationCount()":"5734e5e3","getOrganizationDetails(uint256)":"79bb57b4","getUSDCAddress()":"bc06e81d","getUserOrganizations(address)":"aa097ef0","isMemberOfOrganization(uint256,address)":"93c9a005","joinOrganization(uint256)":"0e20f01b","memberOrganizations(address,uint256)":"d937c55d","organizationCount()":"f1c62104","organizations(uint256)":"e792dd8a","userOrganizations(address,uint256)":"d4b5bf56"},"id":27}