{"abi":[{"type":"constructor","inputs":[{"name":"_usdcAddress","type":"address","internalType":"address"}],"stateMutability":"nonpayable"},{"type":"function","name":"MINIMUM_CONTRIBUTION","inputs":[],"outputs":[{"name":"","type":"uint256","internalType":"uint256"}],"stateMutability":"view"},{"type":"function","name":"USDC","inputs":[],"outputs":[{"name":"","type":"address","internalType":"contract IERC20"}],"stateMutability":"view"},{"type":"function","name":"campaignCount","inputs":[],"outputs":[{"name":"","type":"uint256","internalType":"uint256"}],"stateMutability":"view"},{"type":"function","name":"campaigns","inputs":[{"name":"","type":"uint256","internalType":"uint256"}],"outputs":[{"name":"name","type":"string","internalType":"string"},{"name":"description","type":"string","internalType":"string"},{"name":"imageUrl","type":"string","internalType":"string"},{"name":"walletAddress","type":"address","internalType":"address payable"},{"name":"orgId","type":"uint256","internalType":"uint256"},{"name":"totalDeposits","type":"uint256","internalType":"uint256"},{"name":"isActive","type":"bool","internalType":"bool"}],"stateMutability":"view"},{"type":"function","name":"createCampaign","inputs":[{"name":"_orgId","type":"uint256","internalType":"uint256"},{"name":"_name","type":"string","internalType":"string"},{"name":"_description","type":"string","internalType":"string"},{"name":"_imageUrl","type":"string","internalType":"string"},{"name":"_walletAddress","type":"address","internalType":"address payable"}],"outputs":[{"name":"","type":"uint256","internalType":"uint256"}],"stateMutability":"nonpayable"},{"type":"function","name":"createOrganization","inputs":[{"name":"_name","type":"string","internalType":"string"},{"name":"_imageUrl","type":"string","internalType":"string"},{"name":"_description","type":"string","internalType":"string"}],"outputs":[{"name":"","type":"uint256","internalType":"uint256"}],"stateMutability":"nonpayable"},{"type":"function","name":"deposit","inputs":[{"name":"_campaignId","type":"uint256","internalType":"uint256"},{"name":"_amount","type":"uint256","internalType":"uint256"}],"outputs":[],"stateMutability":"nonpayable"},{"type":"function","name":"getCampaignCount","inputs":[],"outputs":[{"name":"","type":"uint256","internalType":"uint256"}],"stateMutability":"view"},{"type":"function","name":"getCampaignDetails","inputs":[{"name":"_campaignId","type":"uint256","internalType":"uint256"}],"outputs":[{"name":"name","type":"string","internalType":"string"},{"name":"description","type":"string","internalType":"string"},{"name":"imageUrl","type":"string","internalType":"string"},{"name":"walletAddress","type":"address","internalType":"address"},{"name":"orgId","type":"uint256","internalType":"uint256"},{"name":"totalDeposits","type":"uint256","internalType":"uint256"},{"name":"isActive","type":"bool","internalType":"bool"}],"stateMutability":"view"},{"type":"function","name":"getMemberDeposits","inputs":[{"name":"_campaignId","type":"uint256","internalType":"uint256"},{"name":"_member","type":"address","internalType":"address"}],"outputs":[{"name":"","type":"uint256","internalType":"uint256"}],"stateMutability":"view"},{"type":"function","name":"getMemberOrganizations","inputs":[{"name":"_member","type":"address","internalType":"address"}],"outputs":[{"name":"","type":"uint256[]","internalType":"uint256[]"}],"stateMutability":"view"},{"type":"function","name":"getMinimumContribution","inputs":[],"outputs":[{"name":"","type":"uint256","internalType":"uint256"}],"stateMutability":"pure"},{"type":"function","name":"getOrganizationCampaigns","inputs":[{"name":"_orgId","type":"uint256","internalType":"uint256"}],"outputs":[{"name":"","type":"uint256[]","internalType":"uint256[]"}],"stateMutability":"view"},{"type":"function","name":"getOrganizationCount","inputs":[],"outputs":[{"name":"","type":"uint256","internalType":"uint256"}],"stateMutability":"view"},{"type":"function","name":"getOrganizationDetails","inputs":[{"name":"_orgId","type":"uint256","internalType":"uint256"}],"outputs":[{"name":"name","type":"string","internalType":"string"},{"name":"imageUrl","type":"string","internalType":"string"},{"name":"description","type":"string","internalType":"string"},{"name":"owner","type":"address","internalType":"address"},{"name":"isActive","type":"bool","internalType":"bool"},{"name":"orgId","type":"uint256","internalType":"uint256"}],"stateMutability":"view"},{"type":"function","name":"getUSDCAddress","inputs":[],"outputs":[{"name":"","type":"address","internalType":"address"}],"stateMutability":"view"},{"type":"function","name":"getUserOrganizations","inputs":[{"name":"_user","type":"address","internalType":"address"}],"outputs":[{"name":"","type":"uint256[]","internalType":"uint256[]"}],"stateMutability":"view"},{"type":"function","name":"isMemberOfOrganization","inputs":[{"name":"_orgId","type":"uint256","internalType":"uint256"},{"name":"_member","type":"address","internalType":"address"}],"outputs":[{"name":"","type":"bool","internalType":"bool"}],"stateMutability":"view"},{"type":"function","name":"joinOrganization","inputs":[{"name":"_orgId","type":"uint256","internalType":"uint256"}],"outputs":[],"stateMutability":"nonpayable"},{"type":"function","name":"memberOrganizations","inputs":[{"name":"","type":"address","internalType":"address"},{"name":"","type":"uint256","internalType":"uint256"}],"outputs":[{"name":"","type":"uint256","internalType":"uint256"}],"stateMutability":"view"},{"type":"function","name":"organizationCount","inputs":[],"outputs":[{"name":"","type":"uint256","internalType":"uint256"}],"stateMutability":"view"},{"type":"function","name":"organizations","inputs":[{"name":"","type":"uint256","internalType":"uint256"}],"outputs":[{"name":"name","type":"string","internalType":"string"},{"name":"imageUrl","type":"string","internalType":"string"},{"name":"description","type":"string","internalType":"string"},{"name":"owner","type":"address","internalType":"address"},{"name":"orgId","type":"uint256","internalType":"uint256"},{"name":"isActive","type":"bool","internalType":"bool"}],"stateMutability":"view"},{"type":"function","name":"userOrganizations","inputs":[{"name":"","type":"address","internalType":"address"},{"name":"","type":"uint256","internalType":"uint256"}],"outputs":[{"name":"","type":"uint256","internalType":"uint256"}],"stateMutability":"view"},{"type":"event","name":"CampaignCreated","inputs":[{"name":"campaignId","type":"uint256","indexed":true,"internalType":"uint256"},{"name":"name","type":"string","indexed":false,"internalType":"string"},{"name":"orgId","type":"uint256","indexed":true,"internalType":"uint256"},{"name":"walletAddress","type":"address","indexed":true,"internalType":"address"},{"name":"imageUrl","type":"string","indexed":false,"internalType":"string"}],"anonymous":false},{"type":"event","name":"DepositMade","inputs":[{"name":"campaignId","type":"uint256","indexed":true,"internalType":"uint256"},{"name":"member","type":"address","indexed":true,"internalType":"address"},{"name":"amount","type":"uint256","indexed":false,"internalType":"uint256"},{"name":"timestamp","type":"uint256","indexed":false,"internalType":"uint256"},{"name":"newTotal","type":"uint256","indexed":false,"internalType":"uint256"}],"anonymous":false},{"type":"event","name":"MemberJoined","inputs":[{"name":"orgId","type":"uint256","indexed":true,"internalType":"uint256"},{"name":"member","type":"address","indexed":true,"internalType":"address"}],"anonymous":false},{"type":"event","name":"OrganizationCreated","inputs":[{"name":"orgId","type":"uint256","indexed":true,"internalType":"uint256"},{"name":"name","type":"string","indexed":false,"internalType":"string"},{"name":"owner","type":"address","indexed":true,"internalType":"address"},{"name":"imageUrl","type":"string","indexed":false,"internalType":"string"},{"name":"description","type":"string","indexed":false,"internalType":"string"}],"anonymous":false},{"type":"error","name":"ReentrancyGuardReentrantCall","inputs":[]}],"bytecode":{"object":"0x60a060405234801561001057600080fd5b5060405161205238038061205283398101604081905261002f9161009f565b60016000556001600160a01b03811661008e5760405162461bcd60e51b815260206004820152601460248201527f496e76616c696420555344432061646472657373000000000000000000000000604482015260640160405180910390fd5b6001600160a01b03166080526100cf565b6000602082840312156100b157600080fd5b81516001600160a01b03811681146100c857600080fd5b9392505050565b608051611f4c61010660003960008181610240015281816102bc0152818161133d0152818161141b015261150d0152611f4c6000f3fe608060405234801561001057600080fd5b506004361061014d5760003560e01c80638d0bba03116100c3578063d937c55d1161007c578063d937c55d1461032d578063d993de6214610340578063e2bbb15814610353578063e792dd8a14610366578063f1c621041461038b578063f84038b11461039457600080fd5b80638d0bba031461027a57806393c9a00514610284578063aa097ef0146102a7578063bc06e81d146102ba578063ca8cc56c146102e0578063d4b5bf561461031a57600080fd5b80636caa9218116101155780636caa9218146101df5780637271608d146101e75780637274e30d146101fa57806379bb57b414610203578063858dd14a1461022857806389a302711461023b57600080fd5b80630e20f01b14610152578063141961bc1461016757806323247b56146101965780635370129d146101b75780635734e5e3146101d7575b600080fd5b610165610160366004611869565b61039d565b005b61017a610175366004611869565b6104d5565b60405161018d97969594939291906118c8565b60405180910390f35b6101a96101a43660046119d6565b6106b5565b60405190815260200161018d565b6101ca6101c5366004611869565b610864565b60405161018d9190611a5e565b6005546101a9565b6006546101a9565b6101ca6101f5366004611aba565b6109c3565b6101a960065481565b610216610211366004611869565b610a2f565b60405161018d96959493929190611ade565b6101a9610236366004611b3f565b610c31565b6102627f000000000000000000000000000000000000000000000000000000000000000081565b6040516001600160a01b03909116815260200161018d565b6101a9624c4b4081565b610297610292366004611be6565b610eb5565b604051901515815260200161018d565b6101ca6102b5366004611aba565b610ee5565b7f0000000000000000000000000000000000000000000000000000000000000000610262565b6101a96102ee366004611be6565b60008281526004602090815260408083206001600160a01b038516845260070190915290205492915050565b6101a9610328366004611c16565b610f4f565b6101a961033b366004611c16565b610f80565b61017a61034e366004611869565b610f9c565b610165610361366004611c42565b6111ad565b610379610374366004611869565b611664565b60405161018d96959493929190611c64565b6101a960055481565b624c4b406101a9565b600081815260016020526040902060050154819060ff166104055760405162461bcd60e51b815260206004820152601b60248201527f4f7267616e697a6174696f6e20646f6573206e6f74206578697374000000000060448201526064015b60405180910390fd5b600082815260016020908152604080832033845260060190915290205460ff16156104655760405162461bcd60e51b815260206004820152601060248201526f20b63932b0b23c90309036b2b6b132b960811b60448201526064016103fc565b60008281526001602081815260408084203380865260069091018352818520805460ff191685179055600383528185208054948501815585529184209092018590559051909184917f78da64a590c3052953ad9e0a5546bbf12bb68ae7634e3fb2a774e22a8c6557c19190a35050565b6004602052600090815260409020805481906104f090611cc7565b80601f016020809104026020016040519081016040528092919081815260200182805461051c90611cc7565b80156105695780601f1061053e57610100808354040283529160200191610569565b820191906000526020600020905b81548152906001019060200180831161054c57829003601f168201915b50505050509080600101805461057e90611cc7565b80601f01602080910402602001604051908101604052809291908181526020018280546105aa90611cc7565b80156105f75780601f106105cc576101008083540402835291602001916105f7565b820191906000526020600020905b8154815290600101906020018083116105da57829003601f168201915b50505050509080600201805461060c90611cc7565b80601f016020809104026020016040519081016040528092919081815260200182805461063890611cc7565b80156106855780601f1061065a57610100808354040283529160200191610685565b820191906000526020600020905b81548152906001019060200180831161066857829003601f168201915b5050505060038301546004840154600585015460069095015493946001600160a01b039092169390925060ff1687565b6000808451116106fe5760405162461bcd60e51b81526020600482015260146024820152734e616d652063616e6e6f7420626520656d70747960601b60448201526064016103fc565b600083511161074b5760405162461bcd60e51b8152602060048201526019602482015278496d6167652055524c2063616e6e6f7420626520656d70747960381b60448201526064016103fc565b6005546000818152600160205260409020806107678782611d52565b50600181016107768682611d52565b50600281016107858582611d52565b50600380820180546001600160a01b031916339081179091556004830184905560058301805460ff19908116600190811790925560008381526006860160209081526040808320805490941685179093556002815282822080548086018255908352818320018890558482529485528181208054938401815581529390932001849055905183907fe4156f5a12f2e090f225e7793f7aa436b22e2f369e3d29e9a9a26fad599858719061083d908a908a908a90611e12565b60405180910390a36005805490600061085583611e6b565b90915550919695505050505050565b6060600060065467ffffffffffffffff81111561088357610883611933565b6040519080825280602002602001820160405280156108ac578160200160208202803683370190505b5090506000805b6006548110156109285760008181526004602081905260409091200154851480156108ef575060008181526004602052604090206006015460ff165b15610920578083838151811061090757610907611e84565b60209081029190910101528161091c81611e6b565b9250505b6001016108b3565b5060008167ffffffffffffffff81111561094457610944611933565b60405190808252806020026020018201604052801561096d578160200160208202803683370190505b50905060005b828110156109ba5783818151811061098d5761098d611e84565b60200260200101518282815181106109a7576109a7611e84565b6020908102919091010152600101610973565b50949350505050565b6001600160a01b038116600090815260036020908152604091829020805483518184028101840190945280845260609392830182828015610a2357602002820191906000526020600020905b815481526020019060010190808311610a0f575b50505050509050919050565b60008181526001602081905260408220600381015460058201546004830154835460609687968796919586958695939485949385019360028601936001600160a01b03169260ff16918690610a8390611cc7565b80601f0160208091040260200160405190810160405280929190818152602001828054610aaf90611cc7565b8015610afc5780601f10610ad157610100808354040283529160200191610afc565b820191906000526020600020905b815481529060010190602001808311610adf57829003601f168201915b50505050509550848054610b0f90611cc7565b80601f0160208091040260200160405190810160405280929190818152602001828054610b3b90611cc7565b8015610b885780601f10610b5d57610100808354040283529160200191610b88565b820191906000526020600020905b815481529060010190602001808311610b6b57829003601f168201915b50505050509450838054610b9b90611cc7565b80601f0160208091040260200160405190810160405280929190818152602001828054610bc790611cc7565b8015610c145780601f10610be957610100808354040283529160200191610c14565b820191906000526020600020905b815481529060010190602001808311610bf757829003601f168201915b505050505093509650965096509650965096505091939550919395565b600085815260016020526040812060050154869060ff16610c945760405162461bcd60e51b815260206004820152601b60248201527f4f7267616e697a6174696f6e20646f6573206e6f74206578697374000000000060448201526064016103fc565b60008781526001602052604090206003015487906001600160a01b03163314610cff5760405162461bcd60e51b815260206004820152601a60248201527f4e6f7420746865206f7267616e697a6174696f6e206f776e657200000000000060448201526064016103fc565b6001600160a01b038416610d4e5760405162461bcd60e51b8152602060048201526016602482015275496e76616c69642077616c6c6574206164647265737360501b60448201526064016103fc565b6000875111610d965760405162461bcd60e51b81526020600482015260146024820152734e616d652063616e6e6f7420626520656d70747960601b60448201526064016103fc565b6000855111610de35760405162461bcd60e51b8152602060048201526019602482015278496d6167652055524c2063616e6e6f7420626520656d70747960381b60448201526064016103fc565b600654600081815260046020526040902080610dff8a82611d52565b5060018101610e0e8982611d52565b5060028101610e1d8882611d52565b506003810180546001600160a01b0319166001600160a01b038816908117909155600482018b905560068201805460ff191660011790556040518b9084907f1822b1fbfa83e2e86484f31e1d17e33f0e3e7954cec63fd3a359f1e98f3745e390610e8a908e908d90611e9a565b60405180910390a460068054906000610ea283611e6b565b90915550919a9950505050505050505050565b60008281526001602090815260408083206001600160a01b038516845260060190915290205460ff165b92915050565b6001600160a01b038116600090815260026020908152604091829020805483518184028101840190945280845260609392830182828015610a235760200282019190600052602060002090815481526020019060010190808311610a0f5750505050509050919050565b60026020528160005260406000208181548110610f6b57600080fd5b90600052602060002001600091509150505481565b60036020528160005260406000208181548110610f6b57600080fd5b600081815260046020819052604082206003810154918101546005820154600683015483546060968796879691958695869586958594600186019460028701946001600160a01b0390921693909260ff909116908790610ffb90611cc7565b80601f016020809104026020016040519081016040528092919081815260200182805461102790611cc7565b80156110745780601f1061104957610100808354040283529160200191611074565b820191906000526020600020905b81548152906001019060200180831161105757829003601f168201915b5050505050965085805461108790611cc7565b80601f01602080910402602001604051908101604052809291908181526020018280546110b390611cc7565b80156111005780601f106110d557610100808354040283529160200191611100565b820191906000526020600020905b8154815290600101906020018083116110e357829003601f168201915b5050505050955084805461111390611cc7565b80601f016020809104026020016040519081016040528092919081815260200182805461113f90611cc7565b801561118c5780601f106111615761010080835404028352916020019161118c565b820191906000526020600020905b81548152906001019060200180831161116f57829003601f168201915b50505050509450975097509750975097509750975050919395979092949650565b6111b561183f565b8160065481106112075760405162461bcd60e51b815260206004820152601760248201527f43616d706169676e20646f6573206e6f7420657869737400000000000000000060448201526064016103fc565b60008181526004602052604090206006015460ff166112615760405162461bcd60e51b815260206004820152601660248201527543616d706169676e206973206e6f742061637469766560501b60448201526064016103fc565b6000838152600460208181526040808420928301548452600182528084203385526006019091529091205460ff166112db5760405162461bcd60e51b815260206004820181905260248201527f4e6f742061206d656d626572206f6620746865206f7267616e697a6174696f6e60448201526064016103fc565b624c4b408310156113265760405162461bcd60e51b81526020600482015260156024820152744465706f7369742062656c6f77206d696e696d756d60581b60448201526064016103fc565b6040516370a0823160e01b815233600482015283907f00000000000000000000000000000000000000000000000000000000000000006001600160a01b0316906370a0823190602401602060405180830381865afa15801561138c573d6000803e3d6000fd5b505050506040513d601f19601f820116820180604052508101906113b09190611ec8565b10156113fe5760405162461bcd60e51b815260206004820152601960248201527f496e73756666696369656e7420555344432062616c616e63650000000000000060448201526064016103fc565b604051636eb1769f60e11b815233600482015230602482015283907f00000000000000000000000000000000000000000000000000000000000000006001600160a01b03169063dd62ed3e90604401602060405180830381865afa15801561146a573d6000803e3d6000fd5b505050506040513d601f19601f8201168201806040525081019061148e9190611ec8565b10156114dc5760405162461bcd60e51b815260206004820152601b60248201527f496e73756666696369656e74205553444320616c6c6f77616e6365000000000060448201526064016103fc565b60038101546040516323b872dd60e01b81523360048201526001600160a01b039182166024820152604481018590527f0000000000000000000000000000000000000000000000000000000000000000909116906323b872dd906064016020604051808303816000875af1158015611558573d6000803e3d6000fd5b505050506040513d601f19601f8201168201806040525081019061157c9190611ee1565b6115bf5760405162461bcd60e51b81526020600482015260146024820152731554d110c81d1c985b9cd9995c8819985a5b195960621b60448201526064016103fc565b8281600501546115cf9190611f03565b60058201553360009081526007820160205260409020546115f1908490611f03565b3360008181526007840160205260409081902083905551909186917f43e534af76c719a70aba9c6aea2c26b61620e8cfcf4832e47c4f273625eb60759161164c91889142919283526020830191909152604082015260600190565b60405180910390a350506116606001600055565b5050565b60016020526000908152604090208054819061167f90611cc7565b80601f01602080910402602001604051908101604052809291908181526020018280546116ab90611cc7565b80156116f85780601f106116cd576101008083540402835291602001916116f8565b820191906000526020600020905b8154815290600101906020018083116116db57829003601f168201915b50505050509080600101805461170d90611cc7565b80601f016020809104026020016040519081016040528092919081815260200182805461173990611cc7565b80156117865780601f1061175b57610100808354040283529160200191611786565b820191906000526020600020905b81548152906001019060200180831161176957829003601f168201915b50505050509080600201805461179b90611cc7565b80601f01602080910402602001604051908101604052809291908181526020018280546117c790611cc7565b80156118145780601f106117e957610100808354040283529160200191611814565b820191906000526020600020905b8154815290600101906020018083116117f757829003601f168201915b505050506003830154600484015460059094015492936001600160a01b039091169290915060ff1686565b60026000540361186257604051633ee5aeb560e01b815260040160405180910390fd5b6002600055565b60006020828403121561187b57600080fd5b5035919050565b6000815180845260005b818110156118a85760208185018101518683018201520161188c565b506000602082860101526020601f19601f83011685010191505092915050565b60e0815260006118db60e083018a611882565b82810360208401526118ed818a611882565b905082810360408401526119018189611882565b6001600160a01b039790971660608401525050608081019390935260a0830191909152151560c0909101529392505050565b634e487b7160e01b600052604160045260246000fd5b600082601f83011261195a57600080fd5b813567ffffffffffffffff8082111561197557611975611933565b604051601f8301601f19908116603f0116810190828211818310171561199d5761199d611933565b816040528381528660208588010111156119b657600080fd5b836020870160208301376000602085830101528094505050505092915050565b6000806000606084860312156119eb57600080fd5b833567ffffffffffffffff80821115611a0357600080fd5b611a0f87838801611949565b94506020860135915080821115611a2557600080fd5b611a3187838801611949565b93506040860135915080821115611a4757600080fd5b50611a5486828701611949565b9150509250925092565b6020808252825182820181905260009190848201906040850190845b81811015611a9657835183529284019291840191600101611a7a565b50909695505050505050565b6001600160a01b0381168114611ab757600080fd5b50565b600060208284031215611acc57600080fd5b8135611ad781611aa2565b9392505050565b60c081526000611af160c0830189611882565b8281036020840152611b038189611882565b90508281036040840152611b178188611882565b6001600160a01b039690961660608401525050911515608083015260a0909101529392505050565b600080600080600060a08688031215611b5757600080fd5b85359450602086013567ffffffffffffffff80821115611b7657600080fd5b611b8289838a01611949565b95506040880135915080821115611b9857600080fd5b611ba489838a01611949565b94506060880135915080821115611bba57600080fd5b50611bc788828901611949565b9250506080860135611bd881611aa2565b809150509295509295909350565b60008060408385031215611bf957600080fd5b823591506020830135611c0b81611aa2565b809150509250929050565b60008060408385031215611c2957600080fd5b8235611c3481611aa2565b946020939093013593505050565b60008060408385031215611c5557600080fd5b50508035926020909101359150565b60c081526000611c7760c0830189611882565b8281036020840152611c898189611882565b90508281036040840152611c9d8188611882565b6001600160a01b0396909616606084015250506080810192909252151560a0909101529392505050565b600181811c90821680611cdb57607f821691505b602082108103611cfb57634e487b7160e01b600052602260045260246000fd5b50919050565b601f821115611d4d576000816000526020600020601f850160051c81016020861015611d2a5750805b601f850160051c820191505b81811015611d4957828155600101611d36565b5050505b505050565b815167ffffffffffffffff811115611d6c57611d6c611933565b611d8081611d7a8454611cc7565b84611d01565b602080601f831160018114611db55760008415611d9d5750858301515b600019600386901b1c1916600185901b178555611d49565b600085815260208120601f198616915b82811015611de457888601518255948401946001909101908401611dc5565b5085821015611e025787850151600019600388901b60f8161c191681555b5050505050600190811b01905550565b606081526000611e256060830186611882565b8281036020840152611e378186611882565b90508281036040840152611e4b8185611882565b9695505050505050565b634e487b7160e01b600052601160045260246000fd5b600060018201611e7d57611e7d611e55565b5060010190565b634e487b7160e01b600052603260045260246000fd5b604081526000611ead6040830185611882565b8281036020840152611ebf8185611882565b95945050505050565b600060208284031215611eda57600080fd5b5051919050565b600060208284031215611ef357600080fd5b81518015158114611ad757600080fd5b80820180821115610edf57610edf611e5556fea264697066735822122094c0b852bcb083f5f7c2883e97088358e8d56a951b20930550931ce0abd162df64736f6c63430008190033","linkReferences":{}},"methodIdentifiers":{"MINIMUM_CONTRIBUTION()":"8d0bba03","USDC()":"89a30271","campaignCount()":"7274e30d","campaigns(uint256)":"141961bc","createCampaign(uint256,string,string,string,address)":"858dd14a","createOrganization(string,string,string)":"23247b56","deposit(uint256,uint256)":"e2bbb158","getCampaignCount()":"6caa9218","getCampaignDetails(uint256)":"d993de62","getMemberDeposits(uint256,address)":"ca8cc56c","getMemberOrganizations(address)":"7271608d","getMinimumContribution()":"f84038b1","getOrganizationCampaigns(uint256)":"5370129d","getOrganizationCount()":"5734e5e3","getOrganizationDetails(uint256)":"79bb57b4","getUSDCAddress()":"bc06e81d","getUserOrganizations(address)":"aa097ef0","isMemberOfOrganization(uint256,address)":"93c9a005","joinOrganization(uint256)":"0e20f01b","memberOrganizations(address,uint256)":"d937c55d","organizationCount()":"f1c62104","organizations(uint256)":"e792dd8a","userOrganizations(address,uint256)":"d4b5bf56"},"id":27}